:10000000E2C1000011C200000FC200000DC20000DA
:100010000BC2000009C2000007C2000005C20000B8
:1000200003C2000001C20000FFC10000FDC10000CA
:10003000FBC10000F9C10000F7C10000F5C10000DC
:10004000F3C10000F1C10000EFC10000EDC10000EC
:10005000EBC10000E9C10000E7C100000C94F90801
:10006000E3C100000C946C090C944309DDC100004D
:10007000DBC10000D9C10000D7C10000D5C100001C
:10008000D3C10000D1C10000CFC10000CDC100002C
:10009000CBC10000C9C10000C7C10000C5C100003C
:1000A000C3C10000C1C10000BFC10000BDC100004C
:1000B000BBC10000B9C10000B7C10000B5C100005C
:1000C000B3C10000B1C10000AFC10000ADC100006C
:1000D000ABC10000A9C10000A7C10000A5C100007C
:1000E000A3C10000202D20005465636C613A2000FC
:1000F00050726573696F6E65206365726F20706101
:10010000726120636F6E74696E7561722E0A0042AF
:1001100069656E76656E69646F2061206C6120632D
:100120006F6E736F6C61206465206C612043616A3F
:1001300061204675657274652E0A002320436F6D39
:10014000616E646F203E2043616A61206365727254
:10015000616461002320436F6D616E646F203E20F7
:1001600043616A61206162696572746100232043A2
:100170006F6D616E646F203E20416C61726D612015
:100180006465736163746976616461002320436F01
:100190006D616E646F203E20416C61726D61206103
:1001A00063746976616461002320436F6D616E64DE
:1001B0006F203E205072696D657220696E696369B7
:1001C0006F20646573616374697661646F002320D6
:1001D000436F6D616E646F203E205072696D657271
:1001E00020696E6963696F20616374697661646F09
:1001F0000023204D6F646F203E2050726F67726144
:100200006D61646F7220616374697661646F00234D
:10021000204D6F646F203E20496E6963696F2064D2
:10022000652063616A612066756572746500506956
:100230006E20696E636F72726563746F0050696ED1
:1002400020636F72726563746F0023204D6F646F5B
:10025000203E2043616A61204162696572746100D9
:1002600023204D6F646F203E20496E677265736F67
:100270002064652070696E0023204D6F646F203EFE
:10028000204E7565766F2070696E0023204D6F6477
:100290006F203E20416C61726D6120736F6E616EE4
:1002A000646F0000002100240027002A002D003088
:1002B00000330001010000040107010A01000022CF
:1002C00000250028002B002E003100340002010020
:1002D00000050108010B0100002000230026002971
:1002E000002C002F0032000001000003010601096C
:1002F0000105050505070508080808020202020AAB
:100300000A080804040404010101010101010103B8
:1003100003030303030303040707070C0C0C0C0C73
:100320000C0C0C0202020206060606060606060B66
:100330000B0B0B0B0B0B0B010210202008081020DD
:100340004010204080020102010804020101020461
:100350000810204080804020100804020180040220
:100360000180402010080402010804020101020477
:100370000810204080010204081020408000000A7C
:100380000B02090C0D0E0807030401000000000019
:10039000000000000000000000000000000000005D
:1003A000000000000000000000121110000000001A
:1003B000000000000000000000000000000000003D
:1003C00000000000A20911241FBECFEFD1E2DEBF62
:1003D000CDBF00E00CBF12E0A0E0B2E0E4E0FCE141
:1003E00000E00BBF02C007900D92AE3FB107D9F7F6
:1003F00024E0AEEFB2E001C01D92AB33B207E1F7EB
:1004000011E0C3EED1E000E006C021970109802F82
:10041000FE010E94F80DC23ED10780E00807A9F74F
:100420000E945A0A0C94000EEBCD96E0899FD001F1
:100430001124A453BC4F90967C936E935F9791E0E8
:1004400091969C939197E0913904F0913A049091A0
:100450003804992339F0309751F0811108C0809108
:10046000E8031994309719F05C968C91FACF0895AF
:10047000CF92DF92EF92FF920F931F9396E0899FA6
:10048000F0011124E453FC4F11A2278D30A121303B
:10049000310549F178F02230310509F44FC023309D
:1004A000310509F450C01F910F91FF90EF90DF903C
:1004B000CF9008956623B9F361E070E0B6DF2FB7FF
:1004C000F8948091130390911403A0911503B091B7
:1004D00016032FBF8093240490932504A093260431
:1004E000B0932704E0CF9FB7F894C0901303D09047
:1004F0001403E0901503F09016039FBF00912404AD
:10050000109125042091260430912704C01AD10AA5
:10051000E20AF30A009136041091370430E020E03B
:100520000C151D052E053F0548F462E070E01F9193
:100530000F91FF90EF90DF90CF9077CF6111B3CF05
:1005400063E070E0F4CF70E060E0F1CF8150823181
:1005500008F05AC0E82FF0E08827EE54FD4F8F4F87
:100560000C94F80DD202D602C402CA02CE020403D1
:10057000D902DF02E302E902ED02F102F702FB0217
:100580000403FF0205030903809180008F778093A5
:1005900080000895809180008F7DF9CF8091800048
:1005A000877FF5CF84B58F7784BD089584B58F7D1F
:1005B000FBCF8091B0008F778093B0000895809139
:1005C000B0008F7DF9CF809190008F77809390005D
:1005D0000895809190008F7DF9CF80919000877F62
:1005E000F5CF8091A0008F778093A000089580912F
:1005F000A0008F7DF9CF8091A000877FF5CF8091FB
:1006000020018F77809320010895809120018F7DB4
:10061000F9CF80912001877FF5CFCF93DF93282FEB
:1006200030E0F901E358FC4F8491F901E95CFC4F9B
:10063000D491F901EF50FD4FC491CC2399F0811171
:1006400085DFEC2FF0E0EE0FFF1FE952FD4FA59183
:10065000B491EC91ED2381E090E009F480E0DF912A
:10066000CF91089580E090E0FACF862FD6CF1F93E8
:10067000CF93DF93282F30E0F901E358FC4F8491AA
:10068000F901E95CFC4FD491F901EF50FD4FC491A1
:10069000CC23A1F0162F811159DFEC2FF0E0EE0FE3
:1006A000FF1FE354FD4FA591B4918FB7F894EC91DF
:1006B000111108C0D095DE23DC938FBFDF91CF915D
:1006C0001F910895DE2BF8CF862F642FD0CFCF93C4
:1006D000DF9390E0FC01E95CFC4F24918F509D4F2B
:1006E000FC0184918823C9F090E0880F991FFC01D8
:1006F000ED55FD4FA591B491FC01E354FD4FC5911B
:10070000D49161110DC09FB7F8948C9120958223EC
:100710008C938881282328839FBFDF91CF910895F0
:10072000623051F49FB7F8943C91822F80958323D7
:100730008C93E8812E2BEFCF8FB7F894EC912E2B72
:100740002C938FBFEACF862F642FC1CF6F927F92F9
:100750008F929F92AF92BF92CF92DF92EF92FF92D1
:100760000F931F93CF93DF9381E0809338048FB76B
:10077000F894409113035091140360911503709104
:1007800016038FBF8091280490912904A0912A0418
:10079000B0912B04481B590B6A0B7B0B80913404DE
:1007A00090913504B0E0A0E084179507A607B7073D
:1007B00008F016C1C0E080913204C81758F4E091E7
:1007C0002E04F0912F04EC0FF11D62E080817FDF99
:1007D000CF5FF1CF712C812C912C540183948091A7
:1007E0003304781608F05AC0072D10E0E091300469
:1007F000F0913104E00FF11F61E0808168DFE0914A
:100800003004F0913104E00FF11F60E080812FDFB0
:10081000D501C401072C04C0880F991FAA1FBB1F54
:100820000A94D2F76C017C01E094F094612C8091E1
:1008300032046816F0F4C62DD0E0E0912E04F09159
:100840002F04EC0FFD1F8081E8DE2496CC0FDD1F06
:10085000C453DC4F892B41F4888199818C299D29CF
:10086000998388836394E3CF888199818E219F2126
:10087000F7CFE0913004F0913104E00FF11F61E017
:100880008081F5DE8091300490913104080F191FAA
:1008900060E0F80180811BDF7394A1CFCCECD3E042
:1008A000FE018FEF9FEF278D30A1232B21F4148EB3
:1008B000968F858F11A2369624E0E830F20799F7DB
:1008C000F12C96E0D92E80913204F81608F04FC032
:1008D000E12C0F2D10E0000F111F0C521C4F209126
:1008E0003304E21608F041C0F801608171810E2CDA
:1008F00002C0769567950A94E2F7F29E9001112462
:100900002E0D311DECECF3E080E0458D568D241763
:10091000350709F469C08F5F36968A30B1F760FFFA
:1009200022C0ECECF3E090E080E0448D411116C071
:10093000E0912C04F0912D04E20FF31F4081D89E2A
:10094000F001D99EF00D1124E453FC4F448F368FF3
:10095000258F10A2178E61E08BDD05C001963696BB
:100960008A30910511F7E394BACFF394ACCF80E0CD
:1009700099A19111892F2696F4E0C830DF07C1F7BD
:100980009FB7F8944091130350911403609115039D
:10099000709116039FBF40932804509329046093DD
:1009A0002A0470932B048823D9F08091ED038823C7
:1009B000B9F08091EB039091EC03019789F4809159
:1009C000E803DF91CF911F910F91FF90EF90DF909F
:1009D000CF90BF90AF909F908F907F906F90089531
:1009E0001092380480E0EDCF6170B6CF3FB7F89435
:1009F00080910F0390911003A0911103B091120305
:100A000026B5A89B05C02F3F19F00196A11DB11D69
:100A10003FBFBA2FA92F982F8827BC01CD01620FA5
:100A2000711D811D911D42E0660F771F881F991F60
:100A30004A95D1F708958F929F92AF92BF92CF922D
:100A4000DF92EF92FF924B015C01D0DF6B017C01E2
:100A5000CDDF6C197D098E099F09683E73408105C1
:100A60009105B0F321E0821A9108A108B10888EE3F
:100A7000C80E83E0D81EE11CF11C81149104A1046E
:100A8000B10431F7FF90EF90DF90CF90BF90AF901F
:100A90009F908F900895AF92BF92CF92DF92EF9286
:100AA000FF920F931F93CF93DF936C017B018B0118
:100AB000040F151FEB015E01AE18BF08C017D10768
:100AC00059F06991D601ED91FC910190F081E02DF2
:100AD000C6011995892B79F7C501DF91CF911F9137
:100AE0000F91FF90EF90DF90CF90BF90AF9008955F
:100AF000FC01538D448D252F30E0842F90E0821B24
:100B0000930B541710F0CF96089501970895FC01A8
:100B1000918D828D981761F0A28DAE0FBF2FB11D00
:100B20005D968C91928D9F5F9F73928F90E0089558
:100B30008FEF9FEF0895FC01918D828D981731F012
:100B4000828DE80FF11D858D90E008958FEF9FEF66
:100B50000895FC01918D228D892F90E0805C9F4F3C
:100B6000821B91098F739927089587E193E0F1DF44
:100B700021E0892B09F420E0822F0895FC01A48D47
:100B8000A80FB92FB11DA35ABF4F2C91848D90E0AF
:100B900001968F739927848FA689B7892C93A08992
:100BA000B1898C91837080648C93938D848D98131C
:100BB00006C00288F389E02D80818F7D80830895AF
:100BC000EF92FF920F931F93CF93DF93EC0181E09D
:100BD000888F9B8D8C8D98131AC0E889F989808144
:100BE00085FF15C09FB7F894EE89FF896083E88977
:100BF000F98980818370806480839FBF81E090E069
:100C0000DF91CF911F910F91FF90EF900895F62EF5
:100C10000B8D10E00F5F1F4F0F731127E02E8C8D8F
:100C20008E110BC00FB607FCFACFE889F9898081D5
:100C300085FFF5CFCE01A2DFF2CFEB8DEC0FFD2FBC
:100C4000F11DE35AFF4FF0829FB7F8940B8FEA89AA
:100C5000FB8980818062D0CF0F931F93CF93DF9366
:100C60008C01D0E0C0E0F801EC0FFD1F6491662319
:100C700039F087E193E0A4DF892B11F02196F3CFBF
:100C8000CE01DF91CF911F910F910895CF93DF9304
:100C9000EC01888D8823B1F0AA89BB89E889F9899C
:100CA0008C9185FD03C0808186FD0CC00FB607FCCA
:100CB000F7CF8C9185FFF2CF808185FFEDCFCE01FC
:100CC0005DDFEACFDF91CF91089580E090E0892B3E
:100CD00021F04BDF81110E94000080E090E0892B21
:100CE00049F080E090E0892B29F00E9400008111FA
:100CF0000E94000080E090E0892B49F080E090E0C5
:100D0000892B29F00E94000081110E94000080E0E0
:100D100090E0892B49F080E090E0892B29F00E9437
:100D2000000081110C9400000895089590E080E087
:100D30000895E1E0F3E081E480838183828383830B
:100D400084838583109207030895883008F05CC07F
:100D5000E82FF0E08827E155F94F8F4F49C7F20699
:100D6000B706B906BE06C606D906D106EA0661E090
:100D70003AC061E081E17BDC61E038C061E081E1A3
:100D800076DC61E08FE073DC61E033C061E081E13B
:100D90006EDC61E08FE06BDC61E08DE068DC61E0DF
:100DA0002BC06623A1F061E087E061DC60E085E0B4
:100DB0005EDC61E081E15BDC61E08FE058DC61E0FA
:100DC0008DE055DC61E08BE052DC61E018C060E052
:100DD00087E016C06623A9F060E087E048DC61E0A8
:100DE00085E045DC60E081E142DC60E08FE03FDCF3
:100DF00060E08DE03CDC60E08BE039DC60E089E0C5
:100E000036CC60E085E0FCCF0895BAC6CF93DF937F
:100E1000EC0160E08E812BDC61E08E8128DC60E0FB
:100E20008E8125DC8BE891E00197F1F7DF91CF917E
:100E30000895CF92DF92EF92FF920F931F93CF937B
:100E4000DF936C017C0187E0E80EF11CD0E0C0E08C
:100E5000062F10E0B8010C2E02C0759567950A9414
:100E6000E2F76170F70181917F0101DC2196C430C6
:100E7000D10581F7C601DF91CF911F910F91FF90AE
:100E8000EF90DF90CF90C2CFCF92DF92EF92FF92A0
:100E90000F931F93CF93DF93EC01F62E642F8C8179
:100EA000E6DB8D818F3F11F060E0E1DB0F2D10E07C
:100EB0008F8584FF23C06E0187E0C80ED11CF12C02
:100EC000E12CB8010E2C02C0759567950A94E2F7E3
:100ED0006170F60181916F01CADBFFEFEF1AFF0A23
:100EE00088E0E816F10469F7CE01DF91CF911F91F8
:100EF0000F91FF90EF90DF90CF9088CFB80184E002
:100F0000759567958A95E1F7CE0193DF6F2DCE0138
:100F1000DF91CF911F910F91FF90EF90DF90CF90D5
:100F200088CF40E0682F84EB93E0AECFCF93DF9380
:100F3000823029F49091C30398609093C303809307
:100F4000C7031092C80380E48093C90380E18093B3
:100F5000CA0380E58093CB0361E08091B803B7DBDF
:100F60008091B9038F3F11F061E0B1DB61E08091C6
:100F7000BA03ADDBC4EBD3E09E01245B3340809128
:100F8000C30384FD0AC084E090E021962817390746
:100F90003CF461E08E819BDBEFCF88E090E0F5CF01
:100FA0008BE39DE00197F1F760E08091B8035FDB90
:100FB00060E08091BA035BDB8091B9038F3F11F051
:100FC00060E055DB8091C30384FD31C063E084EBB6
:100FD00093E02FDFCBE4D6E4CE010197F1F763E095
:100FE00084EB93E026DF2197F1F763E084EB93E055
:100FF00020DF83E592E00197F1F762E084EB93E074
:1010000018DF8091C30380628CDF84E08093C40387
:101010008CE087DF81E085DF8BE39FE10197F1F7CB
:1010200082E08093C50386E0DF91CF917ACF806222
:1010300078DF8BE496E40197F1F78091C303806237
:1010400070DF83E592E00197F1F78091C30380623E
:1010500068DFD7CF41E018DF81E090E00895CF93BB
:10106000C62FE091C703E23068F4E150F0E0EC54A1
:10107000FC4F9489890F806854DF6C2F84EB93E0D8
:10108000CF91E8CFE1E0F2CFFB0101900020E9F73A
:101090003197AF01461B570BDC01ED91FC910280AB
:1010A000F381E02D19946BE372E087E193E0ECCFDC
:1010B000CF93DF93D1DDEC01F6DF8C0F9D1FDF9125
:1010C000CF9108958F929F92AF92BF920F931F93EB
:1010D000CF93DF93CDB7DEB7A1970FB6F894DEBFFD
:1010E0000FBECDBF19A2423008F44AE08E010F5D59
:1010F0001F4F842E912CB12CA12CA501940156D503
:10110000E62FB901CA01EA30FCF4E05DD801EE93A4
:101110008D01232B242B252B81F790E080E0109765
:1011200021F0BD0187E193E0AFDFA1960FB6F894FF
:10113000DEBF0FBECDBFDF91CF911F910F91BF904A
:10114000AF909F908F900895E95CE0CFCF93C82F28
:1011500088EE90E081DD6C2F87E193E031DD84EE55
:1011600090E07ADD6C2F70E090E080E04AE0AADF4A
:10117000CF9199CFCF93DF93EA019091C70369177D
:1011800010F06FEF690FE62FF0E0EC54FC4F9489FC
:10119000890F8068C6DEBE0184EB93E0DF91CF91BA
:1011A00073CFCF93C0E04DE852E060E08C2FE2DFD8
:1011B0004DE852E061E08C2FDDDFCF5FC03199F761
:1011C000CF910895EEDF4EE352E060E080E0D2DFA1
:1011D0004FE452E061E080E0CDCFE3DF41E552E053
:1011E00060E080E0C7DF4FE452E061E080E0C2CF22
:1011F000CFC41F920F920FB60F9211242F933F93DB
:101200008F939F93AF93BF93809113039091140397
:10121000A0911503B091160330910E0323E0230F24
:101220002D3758F50196A11DB11D20930E03809313
:10123000130390931403A0931503B09316038091A6
:101240000F0390911003A0911103B0911203019626
:10125000A11DB11D80930F0390931003A093110360
:10126000B0931203BF91AF919F918F913F912F91B6
:101270000F900FBE0F901F90189526E8230F02962F
:10128000A11DB11DD2CF1F920F920FB60F92112444
:101290000BB60F922F933F934F935F936F937F9370
:1012A0008F939F93AF93BF93EF93FF9387E193E067
:1012B00065DCFF91EF91BF91AF919F918F917F91ED
:1012C0006F915F914F913F912F910F900BBE0F90B7
:1012D0000FBE0F901F9018951F920F920FB60F928E
:1012E00011240BB60F922F938F939F93EF93FF933D
:1012F000E0912703F09128038081E0912D03F09184
:101300002E0382FD1DC09081809130038F5F8F730B
:1013100020913103821741F0E0913003F0E0E95E63
:10132000FC4F958F80933003FF91EF919F918F91A8
:101330002F910F900BBE0F900FBE0F901F9018951E
:101340008081F2CF10921A031092190388EE93E075
:10135000A0E0B0E080931B0390931C03A0931D03B7
:10136000B0931E0387E192E09093180380931703D4
:1013700085EC90E0909324038093230384EC90E029
:10138000909326038093250380EC90E090932803AC
:101390008093270381EC90E090932A0380932903A4
:1013A00082EC90E090932C0380932B0386EC90E0EA
:1013B00090932E0380932D031092300310923103EB
:1013C00010923203109233031092CE031092D20384
:1013D0001092D1031092D30385E392E09093CD0352
:1013E0008093CC03E8EEF3E010821482138215821E
:1013F000369684E0E432F807B9F783E092E0909300
:101400002F0480932E0480E092E090933104809327
:10141000300484E08093320483E08093330487E0D7
:1014200092E090932D0480932C048AE090E09093B6
:1014300035048093340484EF91E0909337048093D3
:10144000360410923A041092390410922804109233
:10145000290410922A0410922B041092380410923E
:10146000B7031092B60389E292E09093B50380939C
:10147000B40381E28093B8038FEF8093B90383E2D2
:101480008093BA0385E28093BB0387E28093BC0319
:1014900089E28093BD038BE28093BE031092BF0369
:1014A0001092C0031092C1031092C2031092C303A2
:1014B00081E03CCD789484B5826084BD84B5816040
:1014C00084BD85B5826085BD85B5816085BD80910F
:1014D0006E00816080936E00109281008091810087
:1014E000826080938100809181008160809381007F
:1014F000809180008160809380008091B100846041
:101500008093B1008091B00081608093B0008091A1
:10151000910082608093910080919100816080931E
:101520009100809190008160809390008091A10053
:1015300082608093A1008091A10081608093A100CE
:101540008091A00081608093A00080912101826041
:1015500080932101809121018160809321018091FC
:10156000200181608093200180917A0084608093C3
:101570007A0080917A00826080937A0080917A006C
:10158000816080937A0080917A00806880937A00ED
:101590001092C100E0912703F091280382E080833C
:1015A000E0912303F09124031082E0912503F09150
:1015B00026038FEC808310922F03E0912B03F09190
:1015C0002C0386E08083E0912903F0912A03808137
:1015D00080618083E0912903F0912A0380818860F3
:1015E0008083E0912903F0912A03808180688083C1
:1015F000E0912903F0912A0380818F7D808382E02E
:1016000095DC81E08EDC8BE39FE10197F1F780911F
:10161000C403982F91609093C403896082DC8FE0AB
:1016200091E046DD80EF90E043DD62E370E080E032
:1016300090E001DAB6DD4CE552E060E080E09ADD52
:101640004DE652E061E080E095DD61E081E13FD868
:1016500061E08FE03CD861E08DE039D861E08BE05B
:1016600036D861E089E033D861E087E030D861E0C6
:1016700085E02DD861E082E22AD861E080E227D8B7
:1016800067E0E62E04E610E075E0D72EC0910D036A
:10169000C111F4C05BD8882391F19091000391119E
:1016A0004BC0843309F43FC054F4803309F4E2C0E2
:1016B000833341F11092FF021092FE020EC0873375
:1016C00059F18E34B9F78091FE029091FF028C5946
:1016D0009F4F9093FF028093FE028091FE029091B3
:1016E000FF028238914059F481EF91E0E1DC81E022
:1016F000809300031092FF021092FE02C0E0C0939C
:101700000D03C4CF2091FE023091FF02E29EC00182
:10171000E39E900D1124DDCF8091FE029091FF0297
:10172000885B9F4FD6CF8091FE029091FF0297FD7C
:10173000019695958795CDCF853309F44CC0BCF4BF
:101740008233E9F154F4803309F496C0813369F1AE
:101750001092FF021092FE02D2CF8333B1F1843394
:10176000B9F78091FE029091FF02049623C088335E
:10177000F1F154F48633A9F1873351F78091FE02D9
:101780009091FF02079616C08E3451F08935A9F169
:101790008933F1F68091FE029091FF0209960AC00A
:1017A0001093FF020093FE02AACF8091FE02909157
:1017B000FF0201969093FF028093FE02A0CF8091DA
:1017C000FE029091FF020296F5CF8091FE02909169
:1017D000FF020396EFCF8091FE029091FF020596E3
:1017E000E9CF8091FE029091FF020696E3CF8091AF
:1017F000FE029091FF020896DDCF8091FE028736AF
:10180000F1F050F4853699F0863609F078CF88EA01
:1018100091E04EDC60E00FC0893629F1D8F08A36BD
:1018200009F06DCF8BE391E043DC60E020C08EECEB
:1018300091E03EDC61E090E080E0DADC60CF8CE8B3
:1018400091E036DC61E082E090E0D2DC60E081E0B3
:1018500090E0F3CF8DE691E02BDC60E082E090E059
:10186000C7DC65E0F4CF84E591E022DC61E083E051
:1018700090E0E3CFC1E043CFC92F41CF8FE092E0AA
:1018800017DC62E370E080E090E0D5D881E090E082
:10189000BCDA80930C0361E058DA82E090E0B5DABC
:1018A0008823D1F08BE892E003DC7BDC4EE752E04A
:1018B00060E080E05FDC4FE452E061E080E05ADC11
:1018C00061E087E042DA61E082E20E9437038091C2
:1018D0000B03811108C0FFCF60E087E036DA60E0DB
:1018E00082E20E94370390E080E08FDA882309F4D7
:1018F0008BC088E792E0DCDB70DCC0900A03C1108B
:1019000060C00E94A603F82E882309F457C01EDC8D
:1019100080ED8F0D8A3008F051C0D0910703BB24B1
:10192000B394BD0E6F2D8B2D9ADBED2FF0E0EF5FA2
:10193000FC4FF082B092070386E0B8123FC068E81F
:1019400073E180E090E077D82CDC4FE852E060E073
:1019500080E010DC40EA52E061E080E00BDC0E94B5
:10196000A603D82F8823D9F361EB72E087E193E0D7
:101970008BDB6D2F87E193E023D995DBDE34E1F03B
:10198000D93569F731E0832E33E0932E4FE5A42E4D
:10199000B12CF40161914F01C5012ADCFFEFAF1AB0
:1019A000BF0A25E6A216B104A1F760E090E080E04E
:1019B0001FDCBFD9CC2E02C010DCBBD9C0920A03F9
:1019C0009CCFEFDB80910903882309F4D7C083E023
:1019D00090E01BDA882309F4CDC08AE492E068DB4A
:1019E000E0DB4CED52E060E080E0C4DB4DEE52E025
:1019F00061E080E0BFDB61E080E20E94370380911C
:101A000008038111BBC0FFCF80E692E051DBDADB37
:101A1000C0900903C110D5CF0E94A603D82F8823F8
:101A2000B9F094DB80ED8D0F8A30A8F4F0900703B5
:101A3000BB24B394BF0C6D2F8B2D11DBEF2DF0E089
:101A4000EF5FFC4FD08386E0B81220C010920703EE
:101A5000C0920903DDCFDE34D9F46BD9B3DB69EB77
:101A600072E087E193E010DB2FE5A22EB12CC501D7
:101A700087D0682F87E193E0A3D8EFEFAE1ABE0AB4
:101A8000F5E6AF16B10499F70EDBE2CFB09207038B
:101A9000D935F1F66FEB72E087E193E0F5DA81E09A
:101AA000882E83E0982E9FE5A92EB12CC50168D021
:101AB000F40191914F01981759F18EE292E0F8DA12
:101AC000D0E081E090E0A1D980930C0361ED72E059
:101AD00087E193E0D9DA60910C0370E090E080E058
:101AE0004AE0F0DAE0DADD2301F161E086E02DD9A9
:101AF000D0920C0365E081E090E07ADB61E083E066
:101B000090E076DB60E082E090E072DBCD2EA0CF4B
:101B1000FFEFAF1ABF0A25E6A216B10409F0C6CF3F
:101B20008DE392E0C5DADC2FCCCF60E086E00DD902
:101B300060910C03615060930C0381E090E058DBEE
:101B4000D0910C0360E08D2F00D9D11181CF10927C
:101B50000C0360E081E090E04BDB60E083E090E02C
:101B600047DB61E082E090E043DB60E087E0EDD8B6
:101B7000CC2E6ECF60E080E20E943703A6D886CDDF
:101B8000F999FECF92BD81BDF89A992780B5089545
:101B9000262FF999FECF1FBA92BD81BD20BD0FB689
:101BA000F894FA9AF99A0FBE01960895A1E21A2EB6
:101BB000AA1BBB1BFD010DC0AA1FBB1FEE1FFF1FF1
:101BC000A217B307E407F50720F0A21BB30BE40B41
:101BD000F50B661F771F881F991F1A9469F7609588
:101BE0007095809590959B01AC01BD01CF01089542
:101BF000EE0FFF1F881F8BBF0790F691E02D199401
:041C0000F894FFCF86
:101C04001B1D1F1315171931323334353637383944
:101C14004E305900000000E0054B0578054606A942
:101C24000587059B05000000002A084B05960695CC
:101C34000600000000A303640335030D0A00496E87
:101C440067726573652050494E3A20202020003E7B
:101C5400004E7565766F2050494E3A0020507265EB
:101C640073696F6E65206365726F20200020706158
:101C7400726120636F6E74696E7561722000496EC3
:101C840067726573652050554B3A20202020002050
:101C9400202020434F4E4649524D41202020200011
:101CA400204E6F3A5B2A5D202053693A5B235D2006
:101CB400005465636C613A200050696E3A20004319
:101CC4006F6D70726F62616E646F2070696E3A201E
:101CD40000496E74656E746F733A200043657272C6
:101CE40061722043616A61205B2A5D200043616D5B
:0E1CF400626961722050494E205B235D200022
:00000001FF
